:10000000020529020823FFFFFFFFFF02082BFFFF65
:10001000FFFFFF020833FFFFFFFFFF02083BFFFF68
:10002000FFFFFF020843FFFFFFFFFF02084BFFFF38
:10003000FFFFFF020853FFFFFFFFFF02085BFFFF08
:10004000FFFFFF020863FFFFFFFFFF02086BFFFFD8
:10005000FFFFFF020873FFFFFFFFFF02087BFFFFA8
:10006000FFFFFF020883FFFFFFFFFF02088BFFFF78
:10007000FFFFFF020893FFFFFFFFFF02089BFFFF48
:10008000FFFFFF0208A3FFFFFFFFFF0208ABB10362
:10009000E303E303E303E303E703EB3C904D534443
:1000A0004F53352E3000020401000210000000F80A
:1000B0000100000000000400000004000000000037
:1000C00029000000004E4F204E414D4520202020A9
:1000D000464154313220202000035F005F00300091
:1000E00058000000000000000000000000000000B8
:1000F0000000000000000000000000000000000000
:10010000000074F71202C543C707E59D5418641038
:10011000704275080475090078081204F17C9D7D11
:10012000147A9C7B06790112066274021204A7906D
:10013000149DE0F8A3E0F9A3E0687003A3E0697000
:100140001390149DE0F47003A3E0F46007E84960A5
:1001500003120650781075B60FE5B4A2E750FAE521
:10016000BBC3944A40F018E870EC75A80075B8005D
:10017000759A0075C6809062707408F079017F02EC
:10018000020371E4CFC0E0E4CEC0E0E4CDC0E0E41F
:10019000CCC0E075F020C3E633F608E633F608E697
:1001A00033F608E633F6181818EC33FCED33FDEEA1
:1001B00033FEEF33FFC3EC9709ED9709EE9709EF94
:1001C00097191919400FFFEC97FC09ED97FD09EEFF
:1001D00097FE191906D5F0BEECF709EDF709EEF711
:1001E00009EFF7191919D0E0FCD0E0FDD0E0FED0FE
:1001F000E0FF222518C582C0E0E51934FFC583C0A1
:10020000E0E518C3958224F810AF0885831985822C
:10021000188008858319858218D2AFCEF0A3E52017
:10022000F0A37808E608F0A3DEFAEFF0A3E5812456
:10023000FAF8E608F0A3E608F0A3E608F0A3080839
:10024000E608F0A3E608F0A315811581D0E0FED002
:10025000E0F8158115811581E8C0E0EEC0E02212BA
:100260000102B900030202AFE479217807B8000265
:100270008004F709D8FCE4900300782A7901800211
:10028000F0A3D8FCD9FA900329AA82AB8390008E00
:10029000787579018015E493A3AC82AD838A828B53
:1002A00083F0A3AA82AB838C828D83D8E9D9E775CA
:1002B00082027583D674071204547582A77583056C
:1002C00074001204542518C582C0E0E51934FFC536
:1002D00083C0E0E518C3958224F910AF088583191F
:1002E0008582188008858319858218D2AFCEF0A345
:1002F000E520F0A37808E608F0A3DEFAEFF0A3E526
:100300008124FBF8E608F0A3E608F0A30808E60855
:10031000F0A3E608F0A315811581D0E0FED0E0F847
:1003200015811581E8C0E0EEC0E0228519838518AB
:1003300082E0A3FEE0A3F5207808E0A3F608DFFA48
:10034000E0A3FFE0A3C0E0E0A3C0E0E0A3C0E0E0E2
:10035000A3C0E0E0A3C0E010AF0885821885831930
:100360008008858218858319D2AFD083D082020499
:100370005A851983851882E0A3FEE0A3F52078084A
:10038000E0A3F608DFFAE0A3FFE0A3C0E0E0A3C02B
:10039000E0E0A3C0E0E0A3C0E010AF0885821885CC
:1003A00083198008858218858319D2AFD083D082C3
:1003B0002212010002000000205104A816090001C9
:1003C00002030109022000010100800F090400005E
:1003D00002080650000705840240000007050402D9
:1003E000400000CC03102074038000CCC0E0EDC0BE
:1003F000E0E518C39CCCAD1950011D10AF068C1858
:100400008D1980068C188D19D2AF120414D0E0FD1E
:10041000D0E0FC22CAC0E0E0A3C582CCC582C5837F
:10042000CDC583F0A3C582CCC582C583CDC583DA93
:10043000E6D0E0CA227009080808226016181818C9
:10044000C6C333C608C633C608C633C608C633C6D5
:10045000D5E0EA22C09FF59FE473D09F22D083D0DD
:1004600082C09FE493C0E0740193C0E0740293F5EE
:100470009F222518F58210AF08F518400215198043
:1004800008F51840021519D2AF85198322BB010265
:10049000E722C082C08389828A83BB0003E0800296
:1004A000E493D083D08222C0D0251810AF08F5186D
:1004B000500205198008F51850020519D2AFD0D0A6
:1004C00022BB000EC082C0838A838982F0D083D091
:1004D0008222BB0101F722251810AF08F51840024F
:1004E00015198008F51840021519D2AF227403803F
:1004F0000474028000C0E0F404120472D0E012051B
:100500007822C3E096F008A3E096F008A3E096F006
:1005100008A3E096F022700422600D18C6C333C60B
:1005200008C633C6D5E0F4182275D00075813F7532
:100530001800751903759F0002025FC3E09608A3B7
:10054000E09608A3E09608A3E09622600C08C6C3D4
:1005500013C618C613C6D5E0F422E0F608A3E0F6E9
:1005600008A3E0F608A3E0F622E6F008A3E6F00808
:10057000A3E6F008A3E6F022CAC0E0E6F0A308DA9A
:10058000FAD0E0FA22E0FAA3E0FBA3E0FCA3E0FD4E
:1005900022EAF0A3EBF0A3ECF0A3EDF0222518F58E
:1005A00082E43519F5832200000080FBE473120415
:1005B0005DAAE30712045D48E40712045DDCE4076A
:1005C00012045DF6E40712045DECE50712045D44D5
:1005D000E80712045DE7E90712045DAEEA071204BA
:1005E0005DAAEC0712045D91ED0712045DFEED07B4
:1005F00012045D32EE0712045DA9EE0712045DBC21
:10060000F00712045DEBF10712045DEDF10712042F
:100610005D2AF20712045D2CF20712045D2EF20728
:1006200012045D3FF20712045D41F20712045D44BB
:10063000F20712045D24D10712045D77D10712047A
:100640005D7CD10712045D43D20712045D5AD307C3
:1006500012045DB3D40712045DC0D40712045D0F09
:10066000D50712045D19D60712045D9CD607120443
:100670005D0BD70712045D86D70712045DA5D70767
:1006800012045DEAD70712045D20D80712045DC486
:10069000D80712045DFCD80712045D1BD9071204A9
:1006A0005D4BDB0712045D80DB0712045DAADB07EC
:1006B00012045DE5DB0712045DCDDC0712045DB7B3
:1006C000DD0712045DC9DD0712045DDBDD071204DE
:1006D0005D21DE0712045DB6DF0712045D16E10737
:1006E00012045D4EE10712045DF8E10712045D5546
:1006F000E20712045DCBE20712045D09E30712046E
:100700005D10070012045D66070012045DAC07006F
:1007100074F71201F3740912059DE0F8A3E0801547
:10072000A3AA82AB838C828D83A3AC82AD83E824A1
:10073000FF18E934FFF9E84960238A828B83E0FEE1
:100740008C828D83E06E8A828B8360D4E0F88C8209
:100750008D83E0FAE8C39AFA95E0FB80047A007B87
:10076000007F0102032B74F61201F3740A12059D37
:10077000E0FEA3E0FFEAF8EBF980188C828D83E0BD
:1007800088828983F0A3A882A9838C828D83A3ACFD
:1007900082AD838E088F09E50824FF1EE50934FF2A
:1007A000FFE508450970D47F0202032B74F712019C
:1007B000F3740912059DE0F8A3E0F98A828B838027
:1007C00003ECF0A3E8FEE9FFEE24FF18EF34FFF995
:1007D000EE4F70ED7F0102032BFFFFFFFFFFFFFFD6
:1007E000FFFFFFFFFFFFFFFFFFFFFFFFFFFFFFFF19
:1007F000FFFFFFFFFFFFFFFFFFFFFFFFFFFFFFFF09
:10080000FFFFFFFFFFFFFFFFFFFFFFFFFFFFFFFFF8
:10081000FFFFFFFF77FF0001020304050607080939
:10082000020C11021C74FFFFFFFFFFFFFFFFFFFF21
:10083000FFFFFFFFFFFFFFFFFFFFFFFFFFFFFFFFC8
:10084000FFFFFFFFFFFFFFFFFFFFFF0220E9FFFFAA
:10085000FFFFFF0220CBFFFFFFFFFF02210AFFFF88
:10086000FFFFFF02207FFFFFFFFFFFFFFFFFFFFFF4
:10087000FFFFFF021CEAFFFFFFFFFFFFFFFFFFFF7D
:10088000FFFFFFFFFFFFFFFFFFFFFF0220A5FFFFAE
:10089000FFFFFFFFFFFFFFFFFFFFFFFFFFFFFFFF68
:1008A000FFFFFF021B23FF0000B400002800280008
:1008B000283075A000A000A000A00000080008E0FB
:1008C00001F0001000100010001000100010005087
:1008D000005000500010001000D007000000000081
:1008E000000F0001000500307507001000010081B5
:1008F000FF00000000FF71238F237723FF02020215
:1009000008025000A0000000E8030260900100000F
:100910004990024C90010000BE0B02529001000071
:10092000B202024C90010000BF0B02549001000083
:10093000C802024C90010000C00B0256900100005A
:10094000CA02024C90010000C10B0258900800003E
:10095000CB02024C90010000C20B025A9001000031
:10096000C30BFF0100FF20026090010000409002D5
:100970004C90010000270C025C9000000000000277
:1009800050900300001803952995299529952995DC
:100990002995299529952995299529952995299567
:1009A000296B2C832C652CFFFF0A09446173682096
:1009B00076312E30020A0002010611061E948DF1D6
:1009C000483194BA754C3E5000003D7144617368E3
:1009D0002076312E300000000000000000000000F2
:1009E00000632E0000692E020202020202020202CD
:1009F000010D000000100102609001000043900210
:100A00004C90010000A80C027490010000E5070260
:100A10004C90010000A90C027290010000638F024B
:100A20004C90010000AA0C027090010000478F0258
:100A30004C90010000AB0C026E90010000A38E02EE
:100A40004C90010000AC0C027890010000B58E02C1
:100A50004C90010000AD0C026C90010000918E02E0
:100A60004C90010000AE0C026A900100007F8E02E3
:100A70004C90010000AF0C026890010000558F02FD
:100A80004C90010000B00C026690010000B10C0116
:100A9000E803053F100AFF0001307503020106005C
:100AA0000000000000000000000000000000000046
:100AB0000000000000000000000000FFFF060080B2
:100AC0000CE8031043686172616374657269737442
:100AD00069632032000443686172616374657269FE
:100AE000737469632033000A4368617261637465DB
:100AF0007269737469632034000A426973637569AB
:100B000074203200000000000000000000000943D3
:100B1000686172616374657269737469632035001A
:100B20000260900100004690024C90010000840D8C
:100B300010178F010000360B0250900300004B0B82
:100B4000024E90010000850D024C90010000960DB0
:100B500010D78E020000510B024E90010000970D3D
:100B6000024C90010000A80D10E78E030000660BF8
:100B7000024E90010000A90D024C90010000BA0D38
:100B800010078F030000BB0D024E90010000D00D36
:100B9000E5C754F84401F5C779012200000080FB45
:100BA000120B90B90003020BFBE479217808B8001E
:100BB000028004F709D8FCE479297802B8000280A1
:100BC00004F709D8FCE490028078E879098002F003
:100BD000A3D8FCD9FA7A677B0B9008A678EB790347
:100BE0008015E493A3AD82AE838A828B83F0A3AA9F
:100BF00082AB838D828E83D8E9D9E775823675837F
:100C0000A77403120C2375829B75830B7400120C5E
:100C10002375D00075813F751880751902759F0086
:100C2000020BA0C09FF59FE473D09F22D083D08297
:100C3000C09FE493C0E0740193C0E0740293F59FF9
:100C400022FFFFFFFFFFFFFFFFFFFFFFFFFFFFFF91
:100C5000FFFFFFFFFFFFFFFFFFFFFFFFFFFFFFFFA4
:100C6000FFFFFFFFFFFFFFFFFFFFFFFFFFFFFFFF94
:100C7000FFFFFFFFFFFFFFFFFFFFFFFFFFFFFFFF84
:100C8000FFFFFFFFFFFFFFFFFFFFFFFFFFFFFFFF74
:100E9000FFFFFFFFFFFFFFFFFFFFFFFF12201220FA
:100EA000FFFF0000FFFFFFFFFFFFFFFFFFFFFFFF50
:100EB000FFFFFFFFFFFFFFFFFFFFFFFFFFFFFFFF42
:100EC000FFFFFFFFFFFFFFFFFFFFFFFFFFFFFFFF32
:100ED000FFFFFFFCFFFFFFFFFFFFFFFFFFFFFFFF25
:100EE000FFFFFFFFFFFFFFFFFFFFFFFFFFFFFFFF12
:100EF000FFFFFFFFFC0AFFFF00FFFFFF00FFFFFFF8
:100F000042550042004C002E0062000F007569003F
:100F10006E000000FFFFFFFFFFFF0000FFFFFFFF6D
:100F20000144006100730068005F000F00756200FB
:100F300069007300630075006900000074005F00C1
:100F4000444153485F427E3142494E20006026872B
:100F5000B544B54400000987B544030000B8030058
:100F60000000000000000000000000000000000081
:100F70000000000000000000000000000000000071
:100F80000000000000000000000000000000000061
:100F90000000000000000000000000000000000051
:100FA0000000000000000000000000000000000041
:100FB0000000000000000000000000000000000031
:100FC0000000000000000000000000000000000021
:100FD0000000000000000000000000000000000011
:100FE0000000000000000000000000000000000001
:100FF00000000000000000000000000000000001F0
:10100000E066701008A3E066700A08A3E06670044A
:1010100008A3E06622C3E7960809E7960809E79661
:101020000809E79622C3E09608A3E09608A3E09695
:1010300008A3E09622C008C3E096F50808A3E0964E
:10104000420808A3E096420808A3E096450870010C
:10105000D3D00822080808EAC0E0EBC0E086F0E739
:10106000A4FA180986F0E7A42AFA180986F0E7A47A
:101070002AFA180986F0E7A42AFA1986F0E7A4FBF1
:10108000E5F02AFA190886F0E7A42BFBE5F03AFA16
:10109000190886F0E7A42BFBE5F03AFA1818098640
:1010A000F0E7A4C5F02BFBE43AFA1908E7C5F0C64F
:1010B000A426F6E5F03BFBE43AFA1886F0E7A4F63E
:1010C000E5F00826F6E43B08F6E43A08F6D0E0FB43
:1010D000D0E0FA22E4CFC0E0E4CEC0E0E4CDC0E04E
:1010E000E4CCC0E075F020E626F608E633F608E624
:1010F00033F608E633F6181818EC33FCED33FDEE42
:1011000033FEEF33FFC3EC9709ED9709EE9709EF34
:1011100097191919400FFFEC97FC09ED97FD09EE9F
:1011200097FE191906D5F0BFECF709EDF709EEF7B0
:1011300009EFF7191919D0E0FCD0E0FDD0E0FED09E
:10114000E0FF226016080808C6C313C618C613C6F7
:1011500018C613C618C613C6D5E0EA2270090808D7
:1011600008226016181818C6C333C608C633C60846
:10117000C633C608C633C6D5E0EA22E627F6080914
:10118000E637F60809E637F60809E637F622E026DC
:10119000F608A3E036F608A3E036F608A3E036F634
:1011A00022E026F008A3E036F008A3E036F008A31A
:1011B000E036F022C3E697F60809E697F60809E656
:1011C00097F60809E697F622C3E096F008A3E096A2
:1011D000F008A3E096F008A3E096F022E056F608A7
:1011E000A3E056F608A3E056F608A3E056F622E080
:1011F00056F008A3E056F008A3E056F008A3E05626
:10120000F022E0F608A3E0F608A3E0F608A3E0F673
:1012100022E6F008A3E6F008A3E6F008A3E6F02231
:10122000E0FAA3E0FBA3E0FCA3E0FD22EAF0A3EBDD
:10123000F0A3ECF0A3EDF022E0F8A3E0F9A3E0FACC
:10124000A3E0FB22E8F0A3E9F0A3EAF0A3EBF0228D
:10125000CAC0E0E6F0A308DAFAD0E0FA22CAC0E099
:10126000E0A3C582CCC582C583CDC583F0A3C5826A
:10127000CCC582C583CDC583DAE6D0E0CA22C3E4FB
:1012800098F8E499F91212BF8026C3E49AFAE49B15
:10129000FBE920E7E91212BFE498F8E499F922C3C8
:1012A000E498F8E499F91212BFE498F8E499F9C3C4
:1012B000E49AFAE49BFB22EB20E7CFE920E7E0B9D0
:1012C0000010BB0008E88AF084F8AAF022E4FBC80A
:1012D000FA22EB70227B10C833C8C933C9335007D8
:1012E000C39AC3DBF280069A50012ADBEAC833F4C2
:1012F000C8C933F4C9FA2275F008E4C833C8C93341
:10130000C933C99AC99B5004C92AC93BD5F0ECFB23
:10131000C833F4C8E4C9FA22600D08C6A2E713C6B0
:1013200018C613C6D5E0F322600C08C6C313C6184E
:10133000C613C6D5E0F422700422600D18C6C3336C
:10134000C608C633C6D5E0F41822251810AF08F534
:1013500018400C15198008F51840021519D2AF2253
:1013600000C0D0251810AF08F518500C05198008DA
:10137000F51850020519D2AFD0D0222518F58210E9
:10138000AF08F518400C15198008F518400215191A
:10139000D2AF851983222518F582E43519F5832209
:1013A0002518F8E43519F9222518FAE43519FB2235
:1013B0002518FCE43519FD22E4732518C582C0E028
:1013C000E51934FFC583C0E0E518C3958224F81001
:1013D000AF0885831985821880088583198582184E
:1013E000D2AFCEF0A3E520F0A37808E608F0A3DEA4
:1013F000FAEFF0A3E58124FAF8E608F0A3E608F096
:10140000A3E608F0A30808E608F0A3E608F0A31591
:10141000811581D0E0FED0E0F8158115811581E8B5
:10142000C0E0EEC0E0222518C582C0E0E51934FF17
:10143000C583C0E0E518C3958224F910AF08858301
:10144000198582188008858319858218D2AFCEF05D
:10145000A3E520F0A37808E608F0A3DEFAEFF0A3F6
:10146000E58124FBF8E608F0A3E608F0A30808E607
:1014700008F0A3E608F0A315811581D0E0FED0E0C6
:10148000F815811581E8C0E0EEC0E022851983855A
:101490001882E0A3FEE0A3F5207808E0A3F608DFB9
:1014A000FAE0A3FFE0A3C0E0E0A3C0E0E0A3C0E057
:1014B000E0A3C0E0E0A3C0E010AF088582188583F8
:1014C000198008858218858319D2AFD083D0820213
:1014D0000C29851983851882E0A3FEE0A3F5207806
:1014E00008E0A3F608DFFAE0A3FFE0A3C0E0E0A372
:1014F000C0E0E0A3C0E0E0A3C0E010AF0885821820
:101500008583198008858218858319D2AFD083D04E
:101510008222C0D02518C582C0E0E51934FFC583FA
:10152000C0E0E518C3958224F310AF0885831985C0
:1015300082188008858319858218D2AFC8F0A3E984
:10154000F0A3EAF0A3EBF0A37908E709F0A3D8FA37
:10155000ECF0A3EDF0A3EEF0A3EFF0A3D0E0F0A346
:10156000D0E0F0A3D0E0F0A3E520F0A3E5F0F0A3F5
:1015700022851983851882E0C0E0A3E0F9A3E0FA90
:10158000A3E0FBA37808E0F608A3DFFAE0FCA3E001
:10159000FDA3E0FEA3E0FFA3E0C0E0A3E0C0E0A362
:1015A000E0F5D0A3E0F520A3E0A3F5F010AF0885A7
:1015B00083198582188008858319858218D2AFD057
:1015C00082D083D0E0F8D0E03274048006740280C8
:1015D000027401C0E0F40412137BD0E01212502216
:1015E0007404800474028000CCC0E0EDC0E0E51813
:1015F000C39CCCAD1950011D10AF068C188D1980FD
:10160000068C188D19D2AF12125DD0E0FDD0E0FC2F
:1016100022D083D082E9C0E0E493A3C386F0C5F072
:1016200095F0F908E493A386F0C5F095F0700BE40B
:1016300093A3C3994005E9048002A3E475F002A4D2
:101640002582F582E5F03583F583D0E0F9E493A3B4
:10165000C0E0E493C0E022D083D082ECC0E0EDC0D3
:10166000E0E493A3FCE493A3FDED4C600D1216A3FC
:10167000EC24FFFCED34FFFD80EFE493A3FCE49346
:10168000A3FDED4C600D1216E2EC24FFFCED34FFDF
:10169000FD80EFD0E0FDD0E0FCE493A3C0E0E49354
:1016A000C0E022C0E0C3E49396087401939618400A
:1016B0000FE493667008087401936618700070193F
:1016C000A3A3C3E49396087401939618A3A3400DB3
:1016D000D0E0D0E0D0E0021693A3A3A3A3A3A3D0AD
:1016E000E022C0E0C0F088F0E4936670080874015E
:1016F0009366187000A8F0A3A3700BD0F0D0E0D0D0
:10170000E0D0E0021693A3A3D0F0D0E022FFFFFFC9
:1017100074F5121426EAFEEBFFEE2434F8EF3400E1
:10172000F988088909EE243512183CF8EE2437129E
:10173000183CF50AEC850AF0A4FCAAF0850AF0ED45
:10174000A42AFDE82CF8E43DF97A257B001212BFAB
:10175000EA850882850983F074075AF87401B80095
:10176000028004C333D8FCFBEA131313541FF8EEB2
:1017700028F8EF3400F9E8245DF582E912183F5BA0
:101780006003EA801CEE243612183CF5F0EA84A8C7
:10179000F0EE28F8EF3400F9E82438F582E9121861
:1017A0003FF97F040214D274F5121426EAFEEBFF0F
:1017B000EE243412183CC0E0EE2435F582EF3400FC
:1017C000F583D0E0F08E828F83A3A3A3A3A3E0FAD6
:1017D000A3E0FB8E828F83A3A3A3A3A3A3A3E0FC18
:1017E000A3E0FDECC39AF50AED9BF50BEE247FF523
:1017F00008EF3400F509850882F583E06401702B59
:10180000EE2480F582EF3400F5831215E4121845BA
:101810007402121360E960137CDB7D04EEFAEFFBC7
:101820001228BD850882850983E4F0AC0AAD0BEE71
:10183000FAEFFB12171012206B0217A2F582EF3499
:1018400000F583E022C082C083851882851983E079
:10185000F8A3E0F9C3EA9CEB9D5010C3EC98ED9916
:10186000401BC3EA98EB995014800EC3EA98EB9999
:101870004007C3EC98ED994004790180027900D0CB
:1018800083D08222EAC39CFAEB9DFB2274ED1214F2
:10189000269003A1E064086005E06407702C906165
:1018A000C8E060269003CFE0F874FF68601CE8751C
:1018B000F003A4C8AAF02AF974D128FE740339FFF2
:1018C0008E828F83A3A3A3E070057900021A2CEE09
:1018D0002468F510EF3400F511906060E085108207
:1018E000851183F0750A44750B05750800750900AC
:1018F000E5D914F50EE5D95403F50F601CEE2482EA
:10190000F50CEF3400F50D7403650F6058E50E60BB
:1019100013EE246712183C700B793DEEFAEFFB12C0
:1019200028E180A690053FE064016026850C828551
:101930000D83E06004780480027800850E08E508D5
:10194000C398FA95E0FB1227678A088B09EA4509D4
:101950007006122B390218CA850C82850D83E0703F
:10196000048A0A8B0B78008016E5D9C0E08812E55E
:101970000A2512F582E50B3400F583D0E0F008E883
:10198000C3950E40E4850C82850D83E0602874FCCD
:10199000250EF50E780A1215CDAC0EA90FEEFAEF52
:1019A000FB12298F7402121360E9700AAA08AB09AE
:1019B00012300D0219197403650F6058850E0C75ED
:1019C0000D00780C1215CDAC0AAD0BAA08AB0912AC
:1019D00029537402121360851082851183E0F87414
:1019E00080687005750C7F8002880CE50CF50A781C
:1019F0000A1215D1E50FF50A780A1215D1A90EAC15
:101A000008AD099003CFE0FA7B001225FF740212A3
:101A1000136080139003A1E06408600BAC0AAD0B67
:101A2000EEFAEFFB122A25122B4579017F0C0214E6
:101A3000D274F312142674FC12134AEAFEEBFF89E7
:101A400008A2AFE433F509C2AFEE2463F50AEF3420
:101A500000F50B8010AA0AAB0B12290B12300D9067
:101A600004E2E004F0850A82850B83E0F8A3E0F944
:101A7000E849602FE82402FAE93400FBEA2402F581
:101A80000CEB3400F50D780C1215CD8A828B83E0B7
:101A9000FCA3E0F9EEFAEFFB1228FF7402121360C8
:101AA000E960B29004E2E060579004E3E0F890044B
:101AB000E2E0C398500C7402650870449004E4E0BE
:101AC000603E8E828F83A3A3A3A3E085188285192D
:101AD00083121B107402121396E8121B109004E17B
:101AE000E028F07402121396AC82AD8385188285CB
:101AF0001983AA82AB83790112260B9004E2E4F0E9
:101B0000E509A2E092AF74041213607F060214D2BA
:101B1000F0A3E4F09004E2E0F822FFFF852187853E
:101B200022C622C0E074EF121512A2AFE433FEC247
:101B3000AF759B00906182E0A2E05012E591A2E0B7
:101B4000500C7591FE74016521700312188CE0A28F
:101B5000E55051E591A2E5504B7591DF9003A1E06E
:101B600064076005E06408702374016521703579AD
:101B7000019003CFE0FA75F003A4CAA8F028FB7423
:101B8000D12AFA74033BFB121A318018E0640D70FD
:101B9000139003C3E004F064287002E4F07A00E0DC
:101BA000F9122B4B906182E0A2E64003021C4AE549
:101BB00091A2E64003021C4A7591BF9003A1E06424
:101BC000057008122A67122A738003122A6D752184
:101BD00000122AD9E99003A2F07900122ACD122826
:101BE000277A017B009003A0E0F9122D9D907803E5
:101BF000E064427055900543E014F0704DC2AF129E
:101C00001C0200782AD0E0F618D0E0F6E59F5407D1
:101C100070057509FF800375097FC4C0E07829E667
:101C2000F50808E65509F509740B7808121328D051
:101C3000E02508F8906270E0A2E740F8E8C333902E
:101C40006272F0906270E0D2E0F0906181E0A2E315
:101C50005009E5E9A2E3500375E9F7A3E0A2E750D4
:101C600009E591A2E7500375917FEEA2E092AF7F64
:101C700004021571C0E0C0D0C082C083906183E0CF
:101C8000A2E05009E5BFA2E0500375BFFEE0A2E16B
:101C90005009E5BFA2E1500375BFFDE0A2E2500983
:101CA000E5BFA2E2500375BFFBE0A2E35009E5BF28
:101CB000A2E3500375BFF7E0A2E45009E5BFA2E438
:101CC000500375BFEFE0A2E55009E5BFA2E5500360
:101CD00075BFDFE0A2E65009E5BFA2E6500375BF7D
:101CE000BFD083D082D0D0D0E032C0E074F21215E1
:101CF00012E5A7A2E4500FE5A1A2E4500953A7EF13
:101D000075A1EF121D3EE5A7A2E5500CE5A1A2E5E5
:101D1000500653A7DF75A1DFE5A7A2E15009E5A1B1
:101D2000A2E1500375A1FDE5A7A2E2500CE5A1A236
:101D3000E2500653A7FB75A1FB7F0102157174F8F1
:101D40001214267521019003A1E0640670077A0041
:101D50007B00122A4FA2AFE433FED2AF9003A7E07C
:101D6000640170187A207B009003A0E0F9122E2104
:101D70007A207B009003A0E0F9122DA3906182E00D
:101D8000D2E6F0900540E0602185C62280169003DF
:101D9000A6E064017008E5C654F84405F5C653BED4
:101DA000FC121B1C7401652160E4EEA2E092AF7F7F
:101DB000010214D28E238F248582288583278518DB
:101DC00082851983E0CEA3E0CF852882852783EB27
:101DD000C9EAC8EDCBECCA75F010C3E833C8E933E3
:101DE000C9EA33CAEB33CBC3EA9EF526EB9FF52550
:101DF000B35004AB25AA26EC33CCED33CDD5F0DAC5
:101E0000AE23AF242274F11214268A088B098C0A9F
:101E10008D0B90902078081211DC740F12139678B5
:101E20000C121202909020780C1211DC7808790CB8
:101E3000121015908FF850107808790C1211B478A0
:101E4000081210354014800E780C79081211B478FD
:101E50000C12103550047901800279007F080214B9
:101E6000D274ED1214268A088B098C0A8D0B90907F
:101E70002078081211DC7413121396780C121202D7
:101E8000909020780C1211DC780C79081210154013
:101E9000117808790C1211B4AA08AB09AC0AAD0B81
:101EA00080227510007511007512007513017810ED
:101EB000790C1211B47810790812117BAA10AB11A9
:101EC000AC12AD137F0C0214D2909020780812123D
:101ED000028A828B8378081211EF7F040214D27475
:101EE000F51214268C828D8378081212028A828B56
:101EF0008378081211C8121F33C3E098F0A3E09949
:101F0000121F25401E908FE078081212028A828BE1
:101F10008378081211A18E828F83E02420F0A3E041
:101F2000344EF080A4F08E828F83C3E09420A3E02F
:101F3000944E22EA2404F8EB3400F9E8FEE9FF8C21
:101F4000828D83A3A3A3A3E0F8A3E0F98E828F83FD
:101F50002274F5121426E9FE9004F6E0FAA3E0FBE1
:101F6000EEC333F8E433F9743728F582748F39F50A
:101F700083E02AF508A3E03BF50978081215CD9017
:101F8000903C121220121DB474021213608A088B46
:101F9000098C0A8D0B74107808121143AA08AB093A
:101FA0007F040214D274F11214268A0C8B0D8C0E4D
:101FB0008D0F740F121396E0FAA3E0FB7411121345
:101FC00096E0F508A3E0F50978081215CDEA24019A
:101FD000F508EB3400F509E4F50AF50B780C7908FF
:101FE000121054908FF07808121202780C790812AF
:101FF0001054AA0CAB0DAC0EAD0F121DB47402122E
:1020000013608B09EA450960047A0180027A00ECCA
:102010002AFCED3400FD7413121396E0F8A3E0F9E6
:10202000E8FEE9FFECF8EDF97A717B021212BF8845
:10203000088909E4F50AF50B8E828F83780812125D
:1020400011ECF8EDF97A717B021212BF8A088B0944
:10205000740578081213378E828F83A3A3A3A3E598
:1020600008F0A3E509F07F080214D2C082C083E91A
:10207000906000F0D083D08222C2AF02000022C064
:10208000E074F2121512A2AFE433FED2AFC2C0E583
:10209000D1A2E4500653D1EF122FEFEEA2E092AF9F
:1020A0007F01021571C0E074F2121512A2AFE43381
:1020B000FED2AFE589A2E15003122F89758900C2D3
:1020C000C5EEA2E092AF7F01021571C0E074F2127A
:1020D0001512A2AFE433FED2AFE58BA2E05003129B
:1020E0002F89758B00C2E880D8C0E0C0D0E8C0E07E
:1020F000E9C0E0E5A8D2AFC2C7A2E7A2E792AFD09D
:10210000E0F9D0E0F8D0D0D0E032C0E0C0D0E8C0F4
:10211000E0E9C0E0C008C009C082C083A2AFE433D8
:10212000F9D2AF900A7FE0F8A3E0687008539AFBF9
:10213000A374018025C2E9900A7FE0F508740125A7
:1021400008F074FF2508F582E43409F583E0F5C151
:10215000900A7FE0C394804002E4F0E9A2E092AFED
:10216000D083D082D009D008D0E0F9D0E0F8D0D028
:10217000D0E032120C2CC19703120C2CD89703120A
:102180000C2C099803120C2C449803120C2C6E98FA
:1021900003120C2C989803120C2CAF9803120C2CE1
:1021A000C69803120C2CDD9803120C2C069903120E
:1021B0000C2C199903120C2C2F9903120C2C4299F8
:1021C00003120C2C699903120C2C0A9A02120C2C83
:1021D0000E9B02120C2C469B02120C2C699B0212C5
:1021E0000C2C749B02120C2C979B02120C2CA69C9C
:1021F00002120C2C7B9D02120C2CF69D02120C2C50
:102200007E9E02120C2CB99E02120C2CF09E021221
:102210000C2C7E9F02120C2C57A002120C2CB7A083
:1022200002120C2CC2A002120C2C41A102120C2C86
:1022300044A102120C2C47A102120C2CD6A10212AE
:102240000C2CD9A102120C2C09A202120C2C33A2C4
:1022500002120C2C21A302120C2CD3A302120C2C60
:1022600096E602120C2CBEE602120C2CECE60212D0
:102270000C2C23E702120C2C81E702120C2CCCE769
:1022800002120C2C17E802120C2C57E802120C2C2C
:102290009DE802120C2CCBE802120C2C88E90212E9
:1022A0000C2C92E902120C2C9FE902120C2CD2E9A0
:1022B00002120C2C9EEA02120C2CAAEA02120C2C1E
:1022C000C2EA02120C2CCCEA02120C2C91A20312CC
:1022D0000C2C9FA203120C2CB7A203120C2CCFA221
:1022E00003120C2CD3C101120C2C7FC201120C2C36
:1022F000FAC201120C2C1BC401120C2C57C401127F
:102300000C2C00C501120C2CE7C501120C2C4BC77C
:1023100001120C2CA2C701120C2C23C801120C2C88
:1023200013C901120C2C60C901120C2CE6C9011250
:102330000C2C18CA01120C2C2CCC01120C2C6ECCBB
:1023400001120C2C8CCC01120C2C0FCD01120C2C78
:10235000E3CD01120C2CABCE01120C2C60CF02127B
:102360000C2C33D002120C2CDCD002120C2C2FD1EE
:1023700002120C2CDFD102120C2C6BD202120C2C8C
:1023800057D302120C2C86D302120C2C99D40212B1
:102390000C2CE1D402120C2CB6D502120C2CF2D566
:1023A00002120C2C0ED602120C2CE9A503120C2CD6
:1023B0009C8303120C2CB28303120C2CD8830312BF
:1023C0000C2CF48403120C2CFE8403120C2C338688
:1023D00003120C2C2B8703120C2C6FE102120C2C15
:1023E0009FE202120C2CD2E202120C2C1CE302120D
:1023F0000C2CE3E402120C2C07A201120C2C71A28B
:1024000001120C2CD0A301120C2CE0A301120C2CF5
:102410000DA401120C2C64A401120C2C0DA50112A8
:102420000C2C14A601120C2CDEA601120C2C3EA8BA
:1024300001120C2C81A801120C2C26A901120C2CC3
:1024400073A901120C2C99A901120C2CA7AB011233
:102450000C2CACAB01120C2CB1AD01120C2CFEAD4E
:1024600001120C2C71AE01120C2CA4AE01120C2C1A
:1024700046AF01120C2CEFAF01120C2C27B0011249
:102480000C2C2AB001120C2C72B001120C2CB2B020
:1024900001120C2C09B101120C2CF68D03120C2C1C
:1024A0000E8E03120C2C568E03120C2C6C8E031203
:1024B0000C2CB38E03120C2CC78F03120C2C5490CF
:1024C00003120C2C9F9003120C2C0C3100120C2CBC
:1024D000183100120C2C533100120C2C98310012C0
:1024E0000C2C583200120C2CDE3200120C2C433310
:1024F00000120C2C6F3300120C2CA83300120C2C81
:10250000E63500120C2CCA3700120C2CB039001220
:102510000C2CF33A00120C2C413D00120C2C533EB3
:1025200000120C2C9E3F00120C2CAE4000120C2C02
:10253000CB4000120C2C064100120C2C284100123A
:102540000C2C8B4100120C2C4C4600120C2CE1463A
:1025500000120C2C324700120C2C594700120C2C84
:10256000AB4700120C2CC94700120C2C2348001258
:102570000C2C0C4900120C2C824A00120C2C064B1D
:1025800000120C2C53EB02120C2C5DEB02120C2CE3
:10259000A0EB02120C2CBBEB02120C2C4BEC021227
:1025A0000C2C73EC02120C2CB0EC02120C2CE7EC8D
:1025B00002120C2C10ED02120C2C85ED02120C2CC8
:1025C0009AED02120C2CAFED02120C2CE0ED02126F
:1025D0000C2CF4ED02120C2C19EE02120C2C53EE02
:1025E00002120C2C7FEE02120C2C02EF02120C2CA9
:1025F0004BEF02120C2C75EF02120C2CA0EF021202
:102600000C2C7D9F03120C2C378D02120C2C658D27
:1026100002120C2CB38E02120C2C938F02120C2C73
:10262000B28F02120C2C2F9002120C2C72900212FC
:102630000C2CC89102120C2C899202120C2C1095B1
:1026400002120C2CB19502120C2CA79602120C2C23
:10265000A49702120C2CFE9802120C2C89990212DB
:102660000C2C229E03120C2C8B9E03120C2CDF9E32
:1026700003120C2C069F03120C2C379F03120C2CF8
:10268000C8EF02120C2C35F002120C2C7CF0021256
:102690000C2C94F102120C2C90F202120C2C73F3FD
:1026A00002120C2C87B702120C2CC9B702120C2C88
:1026B0009BB802120C2C74B902120C2C6EBA0212C6
:1026C0000C2C50BB02120C2CB9BB02120C2C6FBC90
:1026D00002120C2CE3BC02120C2C4FBD02120C2C6B
:1026E00078BD02120C2CF2BD02120C2C8BBE021211
:1026F0000C2CF0BE02120C2C05BF02120C2C4BBF8E
:1027000002120C2C64BF02120C2CC9BF02120C2C3A
:10271000CCBF02120C2CC1FC02120C2CE9FC0212E0
:102720000C2C27FD02120C2CE5FD02120C2C4CFE89
:1027300002120C2C68FE02120C2C90FE02120C2CC1
:10274000C0FE02120C2CCFFE02120C2C4CFF021207
:102750000C2C72FF02120C2CF6B101120C2C94B34B
:1027600001120C2CAFB501120C2CEBB501120C2C84
:1027700018B601120C2CFDB601120C2C44B7011234
:102780000C2C88B701120C2C9AB701120C2CDAB75A
:1027900001120C2C07B801120C2C52B801120C2C8F
:1027A00092B801120C2CC0B801120C2C12B90112F3
:1027B0000C2CA2B901120C2C40BC01120C2C56BEE0
:1027C00001120C2C94BE01120C2C25C001120C2CF1
:1027D0006AC001120C2CE1C001120C2C2BC1011299
:1027E0000C2C0EAE02120C2C8DAE02120C2C4FB41F
:1027F00002120C2C5EB502120C2CC6B602120C2C66
:102800005DB702120C2C975F00120C2CE05F0012D7
:102810000C2C0D6000120C2C406000120C2C4D6032
:1028200000120C2C596000120C2C6B6000120C2C46
:10283000526100120C2CB06100120C2CE5610012E8
:102840000C2C286300120C2C756300120C2C99635D
:1028500000120C2C066400120C2CC46400120C2C08
:102860007D6500120C2CEA6500120C2C9C6600128F
:102870000C2CAC6600120C2C336700120C2CF26787
:1028800000120C2C1F6800120C2C986800120C2CE3
:10289000F56800120C2C3F6900120C2CD56900124F
:1028A0000C2CA06A00120C2C556B00120C2CCA6B5D
:1028B00000120C2C2B6C00120C2C956C00120C2CA2
:1028C000CE6C00120C2C706D00120C2C806E00125D
:1028D0000C2CC06E00120C2CDD6E00120C2CFC6E49
:1028E00000120C2C436F00120C2C686F00120C2C81
:1028F000956F00120C2C0F7000120C2C50700012EF
:102900000C2C747100120C2C247200120C2C7B7293
:1029100000120C2CE57200120C2CFE7200120C2C12
:1029200044A402120C2C97A402120C2CA3A4021291
:102930000C2C78A502120C2C9FA502120C2CDAA5E7
:1029400002120C2C46A602120C2C82A602120C2C8F
:10295000BBA602120C2CD3A602120C2C28A7021222
:102960000C2C41A702120C2C8AA702120C2C9DA73A
:1029700002120C2CB7A702120C2CCDA702120C2CA1
:1029800000A902120C2C47AA02120C2C49AB02120D
:102990000C2C43AC02120C2CFB7F00120C2C008080
:1029A00002120C2C308002120C2CF88302120C2C18
:1029B0004F8502120C2C188602120C2C98870212DA
:1029C0000C2C698802120C2CA68802120C2CC988C7
:1029D00002120C2C078902120C2C108902120C2CEA
:1029E0005A8902120C2C648902120C2C0E8A0212D3
:1029F0000C2CE78A02120C2C3B8B02120C2C9D8BA8
:102A000002120C2CF08B02120C2C1F8C02120C2CBC
:102A10005C8C02120C2C7A9001120C2CE1930112A6
:102A20000C2CE79301120C2C699901120C2CE29DDD
:102A300001120C2CB8A101120C2CA48A03120C2C2C
:102A40001A8B03120C2C308B03120C2C718B03127B
:102A50000C2CAB8B03120C2C248C03120C2C5F8CD3
:102A600003120C2CD28C03120C2C108D03120C2C84
:102A7000198D03120C2C258D03120C2C418D031281
:102A80000C2C6C8D03120C2C828D03120C2CC68D19
:102A900003120C2C2EFB01120C2C41FB01120C2CEE
:102AA0005BFB01120C2C84FB01120C2CC7FB0112E6
:102AB0000C2C06FC01120C2C44FC01120C2CA9FC61
:102AC00001120C2CBEFC01120C2CC9FC01120C2CA6
:102AD000D6FC01120C2CEDFC01120C2CFBFC01129B
:102AE0000C2C06FD01120C2C12FD01120C2C25FDE4
:102AF00001120C2C30FD01120C2C53FD01120C2C78
:102B0000FAFD01120C2C0AFE01120C2C24FE0112FB
:102B10000C2C41FE01120C2C5DFE01120C2C82FECD
:102B200001120C2C8DFE01120C2CA2FE01120C2C99
:102B3000B6FE01120C2C17FF01120C2C1DFF011206
:102B40000C2C23FF01120C2C29FF01120C2C41FF2D
:102B500001120C2C74FF01120C2C35DF01120C2C0D
:102B6000B9DF01120C2C68E001120C2CC7E1011234
:102B70000C2CE8E301120C2CD4E401120C2C09E516
:102B800001120C2C2BE501120C2CDAE501120C2C95
:102B9000D2E701120C2CFBE701120C2C8DE801127C
:102BA0000C2CBFE801120C2CCCE801120C2C23E9F0
:102BB00001120C2C49E901120C2CB6EB01120C2C61
:102BC000B9EC01120C2C11ED01120C2CC4D0011225
:102BD0000C2CCED101120C2CB5D201120C2CBFD270
:102BE00001120C2CE1D201120C2CEDD201120C2C92
:102BF00086D401120C2CB5D401120C2CD1D50112A3
:102C00000C2C2AD601120C2C90D701120C2C6FD848
:102C100001120C2CCBD801120C2C38D901120C2C1F
:102C200073D901120C2CB2D901120C2C6BDC0112DD
:102C30000C2C85DC01120C2C11DD01120C2C1FDD7B
:102C400001120C2C78DD01120C2C86DD01120C2CEB
:102C5000F9DD01120C2C5DDE01120C2CA7DE011235
:102C60000C2C307300120C2C527300120C2C787543
:102C700000120C2C8D7800120C2CA57900120C2C53
:102C8000587A00120C2C3A7B00120C2C7B99031200
:102C90000C2CA09903120C2C129A03120C2CE6C7D0
:102CA00002120C2CEFC702120C2CF8C702120C2CCB
:102CB000CFC802120C2C80CA02120C2CB6CA021207
:102CC0000C2CF0CA02120C2C26CB02120C2C60CB5E
:102CD00002120C2C94CB02120C2CC0CB02120C2C26
:102CE00009CC02120C2C43CC02120C2C8CCC0212FC
:102CF0000C2CE4CC02120C2C19CD02120C2C74CD2D
:102D000002120C2CAECD02120C2CFFCD02120C2C98
:102D100035CE02120C2C6FCE02120C2C9DCE02125C
:102D20000C2CC0CE02120C2C1EA403120C2C4AA494
:102D300003120C2CA5A403120C2CAFA403120C2C10
:102D4000BFA403120C2CFFDB02120C2C09DC0212B4
:102D50000C2C47DC02120C2C90DC02120C2CCADC6E
:102D600002120C2C20DD02120C2C41DD02120C2C64
:102D70004ADD02120C2C95DD02120C2CBEDD021273
:102D80000C2CC8DD02120C2C34DE02120C2CCADE14
:102D900002120C2C14DF02120C2C44DF02120C2C39
:102DA000CDDF02120C2C0DE002120C2C45E00212B9
:102DB0000C2C57E002120C2C76E002120C2C7FE057
:102DC00002120C2C45E102120C2CD7A603120C2C7B
:102DD0009AA103120C2CD29503120C2C0896031204
:102DE0000C2C3E9603120C2C879703120C2C6DA60C
:102DF00003120C2C83A603120C2C8DA603120C2C90
:102E0000A0F802120C2CB5F802120C2C68F9021270
:102E10000C2CA8F902120C2CC1F902120C2CF5F999
:102E200002120C2C42FA02120C2C76FA02120C2C12
:102E3000B8FA02120C2CB4FC02120C2C209B0312C8
:102E40000C2CD19B03120C2CFA9B03120C2C239CF0
:102E500003120C2C659C03120C2C35F402120C2C62
:102E6000FCF502120C2CE2F602120C2C82F7021274
:102E70000C2CE8F702120C2CC99003120C2CEE90CB
:102E800003120C2C189103120C2CD5A703120C2C36
:102E90006D4B00120C2CD14D00120C2C824F0012E5
:102EA0000C2C845000120C2C0D5100120C2C915142
:102EB00000120C2CB65100120C2CEF5400120C2CEA
:102EC000635500120C2C545600120C2C8E56001216
:102ED0000C2CCE5600120C2C815800120C2CD458FD
:102EE00000120C2C1D5900120C2C8B5900120C2CAA
:102EF000BD5900120C2CD55900120C2CEA5A0012A4
:102F00000C2CFA5A00120C2C155C00120C2C375C9D
:102F100000120C2C6D5C00120C2C115E00120C2C9B
:102F2000505E00120C2C725F00120C2C68A303126E
:102F30000C2C79A303120C2C8CA703120C2CCBA7FE
:102F400003120C2CE6FF02120C2CC9A403120C2C49
:102F5000D9A403120C2CF1A403120C2C59A50312B2
:102F60000C2C96A003120C2C1BA103120C2C81A17B
:102F700003120C2CAA9C03120C2CD39C03120C2CB5
:102F80003E9D03120C2C8F9D03120C2CE89D031206
:102F90000C2C008003120C2C178003120C2C908038
:102FA00003120C2C658103120C2C378303120C2C9A
:102FB000358703120C2CC58703120C2C438803128F
:102FC0000C2CCC8803120C2C618903120C2CEB897D
:102FD00003120C2CF58903120C2C048A03120C2CFE
:102FE0001A8A03120C2C2D8A03120C2C8D8A0312C0
:102FF0000C2CA18A03120C2C63A503120C2CCCA55B
:1030000003120C2CDEA503120C2C5E7E00120C2C7D
:10301000AE7E00120C2C377F00120C2C9D7F00120C
:103020000C2C959303120C2CBF9303120C2C85943B
:1030300003120C2C609503120C2CF0BF02120C2C06
:10304000ADC002120C2CE8C002120C2C10C10212EE
:103050000C2C72C102120C2CBEC102120C2C1EC20E
:1030600002120C2CB1C202120C2CB0C302120C2C96
:103070003FC502120C2CC2C502120C2C29C602122A
:103080000C2C40C602120C2C4AC702120C2C88C70A
:1030900002120C2C5FED01120C2CBFF001120C2C53
:1030A00047F201120C2C9EF201120C2CBDF20112FF
:1030B0000C2C3BF301120C2CCBF401120C2CAFF5B1
:1030C00001120C2CBBF901120C2C8BFA01120C2CE6
:1030D00083D602120C2CC8D602120C2CE5D6021292
:1030E0000C2CBCD702120C2C4BD802120C2CCCD9B5
:1030F00002120C2CC6DB02120C2CBAFF02120C2C92
:103100001CA803FF0595D5F5FFFFFFFFC082C08314
:10311000E9900C26F002339B74F71213BAE990027F
:10312000E0F07C187D037AFF7BFF1225579002E1C7
:1031300074FFF0A3F0A3E4F0A3F079051224DF906C
:1031400002E0E0F91224017A757B251227197F012C
:1031500002148C74F41213BA8A088B09EB54806041
:10316000309002E0E0F9122D858A0A8B0BAE0AAF8F
:103170000BEE4F60138E828F83E064B070031224D5
:10318000F7EEFAEFFB122D73AA08E5096480FB80C5
:10319000047A007B0002336A74F21213BA74FC12D0
:1031A000134AEAFEEBFFEE4F60387402121396EEFC
:1031B000F0A3EF1235CFECF0A3ED1235CFAA82AB1E
:1031C000831223FBE9F508707374121213961241EF
:1031D00083E50A450B60658E828F83123246EE4F7F
:1031E000700575080280557A067B00122DDF8A0C67
:1031F0008B0DA80CA90DE8497005750813803D8852
:10320000828983E4123250A3A3EEF0A3EF12461C8E
:10321000E50AF0A3E50BF09002E61232D89002E640
:103220006017E0FCA3E08003EAFCEBFD8C828D8359
:103230001232D870F38C828D831240A8A9087404CE
:1032400012136002481EA3A3A3A3E0FEA3E0FF2283
:10325000F0A3F0888289832274F21213BA890AE9F2
:1032600075F017A4FEAFF09002E5E4F09002E312CF
:1032700032D8600A122DE59002E3E4F0A3F0EEFAF2
:10328000EFFB122DDF8A088B09EA4509602FEEFC5F
:10329000EFFD7900122D619002E3E508F0A3E50946
:1032A000F07B0080081232C2E4F0A3F00BEBC39570
:1032B0000A40F2E50A9002E5F079008002791302F3
:1032C000481EEB75F017A4F8A9F09002E3E028FA85
:1032D000A3E0398A82F58322123E3EEA4B2274F43F
:1032E0001213BA750800750900740C121396124572
:1032F000F0FEE9FF800CE5082401F508E50934003B
:10330000F509C3E5089CE5099D503285080A850941
:103310000B7403780A121337EA250AF8EB350BF918
:1033200088828983A3A3A3A3A3A3124183EE650A82
:103330007003EF650B70BFE8FAE9FB80047A007B4D
:1033400000802774F41213BA7900EAA2E0501B75CA
:1033500008CE75098F78081215CD7C047D007A2877
:103360007B0C1224D974021213607F0402148CC0E7
:1033700082C0839002E61233A2601C88828983A3F4
:10338000A3E06A7003A3E06B8882898370E8A3A33B
:10339000A3A3123E3A80047A007B00D083D082023D
:1033A0000C291248F1E8492274EE1213BA74FC1287
:1033B000134AEAFEEBFF851882851983E4F0A3F037
:1033C000EE240212408CEE24051235BDEE2404F5E5
:1033D0000EEF1239A2E024FE603924FC604624FE80
:1033E000605224FE605E24FE70030234C224FE702C
:1033F0000302353A24FE700302354924FE700302AD
:10340000355824FC700302356724FE7003023576BC
:103410000235B39002FF7417F0A3E41235D71221DE
:10342000790235B3851882851983AC82AD83122465
:10343000FD023583851882851983AC82AD83122500
:1034400003023583850C08850D097402121396ACAE
:1034500082AD83850882850983123E3A12241F8A31
:103460000C8B0DAC0CAD0DEC4D6042E4F50CF50D84
:10347000780C1215CD750CFF750D02780C1215CD58
:10348000750C00750D03780C1215CD740812139687
:103490001215E47916123E3412253F740812136097
:1034A000E9F50C700B123E30122191800F750C0162
:1034B0008508828509831235C51240A8850C08024B
:1034C00035867402121396AC82AD83850C82850D0D
:1034D00083123E3A12241F8A108B11AC10AD11ECEE
:1034E0004D6043850C82850D83A3A31215E47510EE
:1034F000FF75110278101215CD7510007511037843
:10350000101215CD74081213961215E47916123E96
:103510003412253F7408121360E9F509700B123E4E
:1035200030122197800F750901850C82850D831259
:1035300035C51240A8850908804C851882851983F5
:10354000AC82AD83122509803A851882851983AC37
:1035500082AD8312250F802B851882851983AC825A
:10356000AD83122515801C851882851983AC82AD28
:103570008312251B800D851882851983AC82AD834B
:10358000122521E9F508E50860298E828F83A3E0E2
:103590006414601F850E82850F83E09002FF123550
:1035A000CF1248ED9003001240A8E508A31235D7CA
:1035B000122173EEFAEFFB12249D023F94F50CEFFB
:1035C0003400F50D221248F185188285198322F006
:1035D00085188285198322F07CFF7D02850A828509
:1035E0000B83123E3E2274EE1213BA74FC12134A7D
:1035F0008A0A8B0B8C0E8D0FEA2405F508EB34003C
:10360000F5097C157D0079007AFF7B02122D61E5BA
:10361000082402F50CE5091235C085188285198346
:1036200085821085831178101215CD850882850951
:1036300083A3A3A3A3123AEA1215CDE5082405F546
:1036400010E5093400F51178101215CD850C82852E
:103650000D83123E4412241974061213608A108BD3
:1036600011AE10AF11E50A2402F50AE50B12408FE6
:10367000EE4F70030237AC80177402121396123E9D
:103680003A88828983EAF0A3EBF09002FFE004F02D
:103690009002FFE0C3940540030237ACE4F510F557
:1036A0001178101215CD7510E875110278101215E9
:1036B000CD7510E975110278101215CD740612132C
:1036C000961215E47910EEFCEFFD123E3412253F00
:1036D0007408121360E9705E850882850983A3A3CC
:1036E000A3A3A3A3A3E0F89002E8E0687048123A0D
:1036F000EA1215CD7CE97D02E5082408FAE50934D3
:1037000000FB122D5B7402121360E960298E828F18
:1037100083A3A3A3A3123E3A9002FFE0F510740224
:10372000781012133774002510F58274033511F5E3
:1037300083EAF0A3EBF0740212139685821085835E
:103740001178101215CD74021213961215E4850C1F
:1037500082850D8312490212242574041213608A93
:10376000108B11AE10AF119002FFE0F51075110033
:103770007402781012133774FF2510F87402351193
:10378000F988828983A31232D87003023670E82444
:1037900003F8E93400F9EE4F600302367988828934
:1037A0008374FFF0A3F09002FFE004F09002FFE0CA
:1037B000600A123E301221857900800B85088285CF
:1037C000098312409F790A023F9474EA1213BA7473
:1037D000FE12134A8C128D13EA2405F50CEB124AE3
:1037E0006C12324A750800750900EA2402F510EBE4
:1037F0003400F51185188285198385820A85830B2B
:10380000780A1215CD850C82850D83A3A3A3A3127C
:1038100039AC1215CDE50C2405F50AE50D12408FE3
:10382000780A1215CD850C82850D83124900122469
:103830001974061213608A0A8B0BEA450B70030297
:10384000395DEA2404F50EEB1239A212324A8A825B
:103850008B83A3A3A3E0F9851082851183123E3ADE
:10386000122407E9F509600302395DE4F514F51542
:1038700078141215CD7514E875150278141215CD4B
:103880007514E975150278141215CD740612139685
:103890001215E47913AC0AAD0B85108285118312E1
:1038A0003E3A12253F7408121360E9F509600302DD
:1038B000395D9002E8E0F8E5087009E02402900321
:1038C00000F08017900300E0FCE82402FAE43400E2
:1038D000FBEA6C7001EB6003023961850882AA8201
:1038E000123AE19414123AD95073850E82850F83EF
:1038F000E0C0E074012A123999D0E0F00508850E85
:1039000082850F83A3E0C0E085080A7401250A12AE
:103910003999D0E0F005089002E81239AC1215CDC3
:103920007CE97D0285080A7401250AFA74033400D3
:10393000FB122D4974021213609002E8E02508F58D
:103940000874FF6E700374FF6F6012EE24010EEFB7
:103950003400FFE508C3941450030237F4E508600F
:1039600013123D25851082851183123E3A12218B58
:1039700079008014E509700375090A8512828513A0
:1039800083EEF0A3EFF0A90974021213607F0E0218
:10399000148C85080C7401250CF58274033400F531
:1039A00083223400F50F850E82F5832212462F22E2
:1039B00074EE1213BA74FE12134A8C0E8D0FEA24A1
:1039C00005F50CEB1235C0750B009002FFE4F0F525
:1039D0000AEA2402F508EB3400F50980499002FF59
:1039E000E0FA9002E8E0F8123AE19417123AD9406E
:1039F0000D9002FFE0F87416C3989002E8F0123AB6
:103A0000EA1215CD7CE97D0274002AFA74033400B1
:103A1000FB122D4974021213609002E8E0F8900244
:103A2000FFE028F0050AE50C2416F582E50D1239B1
:103A30009DE0F8E50AC3984003023AC29002FFE015
:103A4000C39416507DE50AC333F8E433F9E50C2836
:103A5000FEE50D39FF851882851983AC82AD838E12
:103A6000828F83123E3A12241F8A108B11AC10AD44
:103A700011EC4D7005750B018043E4F510F51178DC
:103A8000101215CD7510E875110278101215CD754C
:103A900010E975110278101215CD740612139612E2
:103AA00015E47916850882850983123E3A12253F6E
:103AB0007408121360E9F50B70030239DD12409BA4
:103AC00080107CFF7D02850882850983123E3A12B0
:103AD000219DA90B7402023F96E99400C365D0337F
:103AE00022EA28F8E43400F9E822E0F51075110024
:103AF00078102274EA1213BA74FC12134A8A0C8BDF
:103B00000D8C128D13EA2405F50AEB12408F75080F
:103B100000750900E50A2402F510E50B3400F511E3
:103B2000740212139685820E85830F780E1215CDBE
:103B3000850A82850B83A3A3A3A31245DB1215CDAF
:103B4000E50A2405F50EE50B3400F50F780E121585
:103B5000CD851082851183124095123E34122419AE
:103B600074061213608A0E8B0FAE0EAF0FE50C2495
:103B700002F50EE50D3400F50F80408882898374CC
:103B8000FFF0050812399274FFF005089002E8E092
:103B9000F50C750D00780C1215CD7CE97D028508B9
:103BA0000C7401250CFA74033400FB122D497402C5
:103BB0001213609002E8E02508F508EE4F60718E60
:103BC000828F83A3A3A3E0F9850E82850F83123E23
:103BD0003A122407E9F509EE24041235BDE97044D0
:103BE000E4F514F51578141215CD7514E875150261
:103BF00078141215CD7514E975150278141215CDC7
:103C000074081213961215E47911EEFCEFFD850E7F
:103C100082850F83123E3A12253F7408121360E921
:103C2000F5096027850C82850D83123D1B1240A883
:103C3000E5087003023D01123D25850E82850F8344
:103C4000123E3A1221A37900023D16850882AA820B
:103C5000EA9002E87009E02404900300F08022E07A
:103C6000F8900300E0F514E82404FCE43400FDECD3
:103C700065147001ED70C0123AE19412123AD950F5
:103C8000B6850C82850D83E0C0E074012A12399953
:103C9000D0E0F00508850C82850D83A3E0C0E0121A
:103CA0003992D0E0123D3785820C85830D780C1255
:103CB00015CD74041213961215E4851082851183B4
:103CC00012490212242574041213608A0C8B0DAE63
:103CD0000CAF0D85080C7401250CF874033400F941
:103CE000EE4F7003023B7B851882851983E0888242
:103CF0008983123D37A3E0C0E0123992D0E0023B45
:103D000089E509700375090A850A82850B83123DCE
:103D10001B1240A8A909740402398A1248F18512BD
:103D20008285138322900300E0F5F0E50884900279
:103D3000FFF07CFF7D0222F005088518828519833B
:103D40002274EC1213BA74FE12134A8A088B098C7F
:103D50000E8D0FEA2405FEEB3400FF8518828519CD
:103D600083AC82AD838E828F83123E3A12241F8AE7
:103D70000A8B0BEE24181235BDEA450B7003023E88
:103D80000B123F7D5032851882851983123E3A12FC
:103D900025338A108B11EA4511606B7912AC0AAD9C
:103DA0000B850882850983123E3A8510828511832E
:103DB0001213B8E9F50A7058E4F50AF50B780A12FF
:103DC00015CD8E828F83A3A3E0F50A780A1215CD54
:103DD000EE240312408C780A1215CD8E828F831246
:103DE0003E441225457406121360E9F50A702185D8
:103DF0000C82850D83E0701F850882850983123E41
:103E00003A1221A98011750A0E8009750A018004F1
:103E1000E50A600312409B850C82850D83E06004F7
:103E200079008002A90A74021213607F0C02148CBC
:103E30007CFF7D02850A82850B83123E3E22E0FADA
:103E4000A3E0FB22E0FCA3E0FD8508828509831244
:103E50003E3E2274EE1213BA74FE12134A8A088B85
:103E6000098C0C8D0DEA2405FEEB3400FF750E0065
:103E7000851882851983AC82AD838E828F83123E32
:103E80003A12241F8A0A8B0BEA450B7003023F6922
:103E9000123F7D5035851882851983123E3A1225CE
:103EA000338A0E8B0FEA450F605E7912AC0AAD0BB8
:103EB000850882850983123E3A850E82850F83121A
:103EC00013B8E9F50E6003023F6C8508828509830B
:103ED000124183AA0AFB1225278A108B11A810A968
:103EE00011E849701E7AFF7BFF1225278A108B117B
:103EF000A810A911E849606C88828983E50AF0A3BB
:103F0000E50BF0750A008007750E0E805F050A90BC
:103F100002E5E0FAE50AC39A504AE50A75F017A4EB
:103F2000FAABF088828983A3A3E02AFAA3E03BFBE3
:103F30008A828B83124095EC4D70D2750A17750BEF
:103F400000780A1215CDEEFCEFFD122D4974021215
:103F50001360EEFCEFFD850882850983123E3A125C
:103F600021AF8014750E098003750E011248E98592
:103F70000C82850D831240A8A90E023AD4E50824CC
:103F800002F508E5093400F5098A828B83A3A3A30F
:103F9000E0A2E52274041213607F0A02148C74EC10
:103FA0001213BA8C108D11EA2405F50CEB1235C0F2
:103FB000750F00EA2402F50AEB12408F850A82F59C
:103FC00083123E3A1225278A088B09EA45097003B5
:103FD000024081750E008071850C82850D83E0643E
:103FE00001704F8E828F83A3A31215E48E828F837C
:103FF000A3A3A3A3E0F51275130078121215CDEE5A
:104000002405F512EF3400F51378121215CD123E87
:10401000341225457406121360E9F50F6014850CFF
:1040200082850D83E4F01248E985108285118312A0
:1040300040A87C177D007900EEFAEFFB122D618E0F
:10404000828F83E4F0A3F0050E9002E5E0F8E50E20
:10405000C398501EE50E75F017A4F8A9F0850882E4
:10406000850983A3A3124A76124095EC4D600302A2
:104070003FD885088285098374FFF0A3F0E50F70AF
:1040800006123E341221B5A90F023E2BF50AEF3479
:1040900000F50B22A3E0FCA3E0FD228E828F8312A9
:1040A00048F1850E82850F83E8F0A3E9F022C082F3
:1040B000C0839002E1E06A7003A3E06B70067AE1CE
:1040C0007B0280047A007B0002339BC082C083782D
:1040D000008C828D83E06A7003A3E06B7010E8753A
:1040E000F003A4F8A9F0EC28FAED39FB8015088C50
:1040F000828D83A3A3A3E06A7003A3E06B60DF7AE1
:10410000007B0002339B74F61213BA1224F18A82E8
:104110008B83E582458370067A007B008007A3A32A
:10412000A3A3123E3A02479A74F21213BAE9FE743C
:104130000E12139612418374101213961245FB8CC3
:10414000828D83E064027036A31248F7F50CA3E079
:10415000F9A80C74026870037429697021750C0247
:10416000750D00780C1215CD78081215CD780A124D
:1041700015CDEEF9122569740612136080027901DB
:1041800002481EE0F50AA3E0F50B2274E81213BA08
:1041900074FB12134AE9851882851983F08A168BFD
:1041A00017ECFEEDFF751000741D1213961248ED0A
:1041B000741D1213961240A88E828F83A3A3A3E0CE
:1041C000A2E4502D741D121396123E3A1225338A22
:1041D000828B83E582458370030245CC790AEEFC2D
:1041E000EFFDAA16AB171213B8E9F51060030245EC
:1041F000CF741F1213961245FB74211213961241AD
:10420000837423121396E0F50EA3E0F50F8E828FD0
:1042100083E06402600302457AA31248ED850882B8
:10422000850983A3858212858313EE24061235BD8A
:1042300088828983E0FAA3E0F9EA2400F514E439DE
:10424000F51578141216570100002801286F42074F
:1042500000022834430328A14200296B4401299617
:10426000440229374403296B44042915457A45E55E
:104270000E450F6003024575850C82850D8312453E
:10428000F0FAE9FB8A828B83E0850A82850B831230
:1042900046261215CD8A828B83A3E0FCA3E002445C
:1042A000FFE50E450F6003024575850A82850B8385
:1042B0007401F0124603850882850983F07C007D35
:1042C000008E828F83A3A3A3A3E02401FAA3E0348A
:1042D00000FB12241FEA4B60418A828B83E0240298
:1042E000F8850A82850B83E028F0EA2404F8EB3491
:1042F00000F988828983E08512828513831246380B
:104300001246261215CD8A828B83124094E508242A
:1043100003FAE5093400FB024504850A82850B8314
:10432000E02404F07C047D007900AA12AB13122D66
:10433000610245CFE50E450F600302457512460345
:10434000FEA3E0FF850A82850B837404F0EE8508E6
:1043500082850983F0EF851282851383F07403123E
:104360001396AC82AD83EEFAEFFB12241F8A0C8BFE
:104370000DEA450D70030244188A828B83A3A312B1
:104380003246740112139685820E85830F780E12C1
:1043900015CD74051213961215E47CFF7DFF1224CF
:1043A0002574041213608B0FEA450F7033850C825D
:1043B000850D831245DB1215CD850C82850D83A3F7
:1043C0001215E47C027D007A5E7B90122251740407
:1043D000121360E9700A740112139674FFF0A3F0CF
:1043E0008E828F83E064027039750C02750D00783F
:1043F0000C1215CD8E828F83124094E5082404FAA6
:10440000E5093400FB122D497402121360850A82FB
:10441000850B83E0240280097401121396EEF0A349
:10442000EFF074011213961245ECF074011213961A
:10443000A31245E402456FE50E450F600302457582
:10444000850C82850D83124095AA16AB1712255D47
:10445000850A82850B837402F0EA850882850983C8
:10446000F0851282851383EB024572E50E450F60DD
:1044700003024575124603F8A3E0F9850A82850B0D
:10448000837402F0E8850882850983F0E985128249
:10449000851383024572850C82850D83123E3A1284
:1044A0002D43EAFC8C82A882C3950EE4950F405FF1
:1044B000E8650E7002E50F70047C0080228518828A
:1044C000851983E0FAE50E2AFAE50F3400FBC3EA0A
:1044D00098EB94005003E08005E50ECCC39CFCEC07
:1044E000850A82850B83F08C0A750B00780A1215F9
:1044F000CD850C82850D83E0250EFCA3E0350FFDF4
:10450000AA08AB09122D4974021213600245CF7537
:1045100010070245CFE50E450F705A850C82850DB8
:10452000831248ED850A82850B837407123252127A
:1045300045E4123252A3E0851282851383F0E82409
:1045400002FAE93400FB8A828B831245E412461397
:104550001245ECA312461C1245F5F0E82405F8E9D3
:104560003400F9888289831245F5A3124638A3A343
:10457000A3A3F0805A75100B8055741D1213961268
:104580003E3A1224F18A828B83E5824583603D1294
:1045900048ED880C890DE8450D6031780E1215CD77
:1045A000780A1215CD78081215CD7406121396E00C
:1045B000F9EEFCEFFDAA16AB17850C82850D831270
:1045C00013B87406121360E9F510800375100EA974
:1045D0001074051213607F1002148CE0F50E750F35
:1045E00000780E22E0850882850983221246422245
:1045F0001248F1E822124642A3A322E0F508A3E004
:10460000F50922850C82850D83E0F8A3E0F5838807
:1046100082E022A3A3F08A828B83A322F08882897E
:1046200083A3A3A3A322F08A828B8312462F22E0C6
:10463000F50A750B00780A22F088828983A3124656
:104640004222E0850882850983A3A32274EE121317
:10465000BA74FE12134A8A0A8B0BECFAEDFB74143F
:10466000121396E0F510A3E0F5117416121396E0FC
:10467000FE7418121396E0F50EA3E0F50F8518826C
:10468000851983AC82AD8312241F8A0C8B0DEA45F9
:104690000D6049851882851983123E3A1224F18AE9
:1046A000828B83E5824583602FA3A31245FBE50837
:1046B00045096024780E1215CD78101215CDEEF94B
:1046C000AC0CAD0DAA0AAB0B8508828509831213C9
:1046D000B874041213608006790E80027901023AE0
:1046E000D474F61213BA74FE12134A740C12139691
:1046F0001245F0851882851983F07401121396E92A
:10470000F0E4F508F50978081215CD750802780867
:104710001215CD74041213968582088583097808D2
:104720001215CD122545740612136074021213601F
:10473000806874F71213BAEAFEEBFF89087C187DD3
:104740000312255DEA5402600BA908EEFAEFFB1292
:1047500024138002790102314E74F61213BA74FFE9
:104760006A700374FF6B70168C828D8312479FE40E
:10477000F08C828D83A3A3A312479FA380181225D8
:104780002D8A088B09A808A909E849600D88828943
:104790008374FF123250A3A3E4F07F0202148C74DE
:1047A000FFF0A3F08C828D83A3A32274F61213BAB8
:1047B00012252D8A828B83E58245836006A3A3E0C0
:1047C000FA80027A007B0080D174F21213BA8A0850
:1047D0008B09ECFEEDFF740E121396E0F50A12251C
:1047E0002D8A0C8B0DA80CA90DE8497026EEFCEF64
:1047F000FD7AFF7BFF12252D8A0C8B0DA80CA90DCD
:10480000E84970047911801688828983E508F0A34D
:10481000E509F088828983A3A3E50AF079007F0681
:1048200002148C74EE1213BAEAFEEBFF8C088D09A9
:10483000890C74141213961248ED74161213961202
:104840003E3A750D00E84960030248E17402650CC8
:1048500060030248DC74121213961248F7FCA3E0BE
:10486000F9EC2400F50EE439F50FEAF4F8EBF4F96D
:10487000EC58F8E50F59F9E849705CE5082406F8AA
:10488000ED3400F9880A890B8882F58312490212F7
:10489000255D8A108B11E50E65107004E50F65111A
:1048A0006042780E1215CD850A82850B831249026B
:1048B0001225637402121360E9F50D7027780E1249
:1048C00015CD850882850983A3A312490012257B93
:1048D0007402121360800D750D808008750D0D80B7
:1048E00003750D0BA90D023F998E828F831248F13B
:1048F00022E0F8A3E0F9221248F188828983E022BD
:10490000A3A3E0FCA3E0FDEEFAEFFB2274E8121390
:10491000BA74E712134A851882851983EAF0A3EB6B
:10492000F08C168D17890E75080075090074311208
:104930001396E0F512A3E0F5137433121396E0F525
:1049400014A3E0F5157435121396E0F50FE509751B
:10495000F003A4F8A9F0851882851983124A76E03D
:10496000F47003A3E0F47003024A59EE2402F50C3C
:10497000EF124A6CE07003024A5985160A85170B3C
:10498000780A1215CDAC14AD15AA12AB131224E59A
:1049900074021213608A0A8B0BEA450B7003024AF9
:1049A00059E4F510F51178101215CD74061213960E
:1049B00085821085831178101215CD740912139613
:1049C00085821085831178101215CD85128285138A
:1049D00083A3A3A3A31215E47914AC0AAD0B8E82B2
:1049E0008F83123E3A12253F7408121360E97069F2
:1049F000850A82850B83A3A3A3A31248ED74021238
:104A000013961240A8850C82850D83E0A2E0501811
:104A1000A90E7402121396AC82AD838E828F83121C
:104A20003E3A122437E94208850C82850D83E0A2C4
:104A3000E15026E50FF50A780A1215D1A90E740384
:104A4000121396AC82AD838E828F83123E3A12246B
:104A5000317401121360E942080509E509C39402A3
:104A6000500302494DA90874190245D33400F50DCD
:104A7000850C82F58322E028FEA3E039FF8E828F29
:104A8000832274F21213BAEAFEEBFF890B740165FC
:104A90000B600E7402650B706A7901122737E9709A
:104AA00062EEFAEFFB1225278A088B09EA450960B6
:104AB00047750A00800B7C177D007900122D610577
:104AC0000A9002E5E0F8E50AC3985021E50A75F07E
:104AD00017A4F8A9F0850882850983A3A3E028FA22
:104AE000A3E039FB8A828B831233A270C9850882C6
:104AF00085098374FFF0A3F07C187D03EEFAEFFBC9
:104B000012255702481E74F21213BA8A088B09EC58
:104B1000FEEDFF740E121396124183900C26E0F402
:104B2000603D7A097B00122D6DEA4B60328A828BE0
:104B30008374B1F0A3E4124615A3124613A3E5084B
:104B4000F0A3E509124B62EEF0A3EF124B62A3A3B0
:104B5000E50AF0A3E50BF0900C26E0F9122D79029E
:104B6000481EF08A828B83A3A3A3A3A32274F0120E
:104B700013BA74FA12134A890BECFEEDFF750A00A2
:104B80008A088B097808121611000410954DB04B55
:104B9000CE4BE84B004C1E4C364C594C714C854C5E
:104BA000AF4C2C4D3D4D544D6F4D954D954DC54CD5
:104BB0007401650B6003024D908E828F83E0F8C311
:104BC00094034003024D90E8900D50024D6C740226
:104BD000650B6003024D908E828F831254D2900D2C
:104BE00051E8F0A3E9024D6C7401650B6003024DBE
:104BF00090124DBD4003024D90E89007EE024D6CBF
:104C00007401650B6003024D908E828F83E0F8C3C0
:104C100094054003024D90E89007EF024D6C74013B
:104C2000650B6003024D90124DBD4003024D90E8AC
:104C30009007F0024D6C7410650B6003024D907587
:104C4000081075090078081215CD7AF17B07122D2E
:104C5000497402121360024DB67401650B600302C1
:104C60004D90124DBD4003024D90E8900801024D59
:104C70006C7401650B6003024D908E828F83E0900F
:104C80000D54024D6C7404650B6003024D908E82CE
:104C90008F83780C12120290903C780C12103550D1
:104CA00003024D90900803780C121211024DB6E9E0
:104CB0006003024D901223BFE97005122EED80565D
:104CC00090089680637407650B6003024D90750829
:104CD0000675090078081215CD8E828F83A3AC82E9
:104CE000AD8374021213A8122D4F74021213607C4C
:104CF000007D00AA18AB198E828F83E0F9122E99DD
:104D0000E9F508C3940A4003024DB31223BFE970CA
:104D10000CA908122EF3795012308B806E749725EF
:104D200008F582E43408F583740180407401650B52
:104D3000705E124DBD5059E8900802802F740165D5
:104D40000B704D8E828F83E0F8C3940A5042E89036
:104D50000D5380187401650B70368E828F83E0F8D6
:104D600074F928C3940A5028E8900D55F0804774D0
:104D700001650B701B900895E0F88E828F83E090A0
:104D80000895F0E87030E06401702B122EE1802667
:104D9000750A188021C3EA9427EB94005015740219
:104DA000650B700F8E828F8312587B12225DE9F59E
:104DB0000A8003750A02A90A740602507C8E828F4B
:104DC00083E0F8C3940222740E1213607F0402146D
:104DD0008C74F01213BA74B112134A8C0C8D0D90AE
:104DE0008FBC74201213B0740612125D742012135B
:104DF000B0122E99E9FE745F121396E0F50AEEC325
:104E0000940A4003024F4E75F006EEA4F508744173
:104E10001213B07A0E74202508F9123085E9700952
:104E2000744D121396E0FF80027F00900D50E064F5
:104E3000027005750E018003750E007408650A7016
:104E4000047422800274212508F50F7C1B7D0079F3
:104E50000074261213A8122D61EFA2E0E433F509C5
:104E600074261213B07A1BA90F123085E9702574CD
:104E700040121396E024F9C3940A5018780E1215C4
:104E8000D174271213B0A909AA0CAB0D1222FF741A
:104E9000011213607C147D007900740C1213A812A7
:104EA0002D61740C1213B07A1074242508F9123095
:104EB00085E970307C1079FF740C1213A8122DC193
:104EC000E97021741C121396AC82AD837A047425A8
:104ED0002508F9123085740C1213B0A909AA0CAB7D
:104EE0000D1222E7AC18AD197A0C74702EF912303D
:104EF00085E97049AA18AB19122EC97E00EE75F02B
:104F000003A4F8A9F0851882851983E58228F8E5BD
:104F100083125687125875601D88828983A3A3E087
:104F2000F50875090078081215CDAA0CAB0D1225ED
:104F30004B74021213600EEEC3940440C0EFA2E162
:104F4000500C9007EDE0F9AA0CAB0D12255174043A
:104F5000650A7027900D50E06402701F7A00900877
:104F600001E060010A9007EEE060047804800278B6
:104F700000E84AF9AA0CAB0D1223A77900744F027E
:104F8000507C74F01213BA74F012134AEAFEEBFF6D
:104F90008C088D09750A0AE9600C14600914603BDD
:104FA00014607D025078122EDBE9F50AC3940A40A2
:104FB00003025078E50845097003025078750C0625
:104FC000750D00780C1215CDEEFCEFFDAA08AB09AB
:104FD000122D497402121360025078750C00750E80
:104FE00006750F00780E1215CDEEFCEFFDE50C7581
:104FF000F00EA4F8A9F0740F28FA740839FB122DEA
:105000005B7402121360E9700B050CE50CC3940A83
:10501000506680CA850C0AE50AC3940A505A804932
:10502000750C00AC18AD197A1075F006E50CA424C7
:1050300023F9123085E9701C7C1079FFAA18AB198E
:10504000122DC1E9700EEEFCEFFDAA18AB19122269
:10505000C9E9600B050CE50CC3940A501B80C4859C
:105060000C0AE50AC3940A500FE50845096009AA2D
:1050700008AB09A90A122ED5A90A74101213607F71
:105080000802148C74F41213BA890875091574FF98
:105090006A700374FF6B70277E00AC087A027B0095
:1050A000EEF9122EB7E960037509000EEEC3940AFB
:1050B00040E8E50860527A057B2F122749804912A3
:1050C000272B8A0A8B0BAE0AAF0BEE4F60377C00A2
:1050D0007D00EE2405FAE43FFB8E828F83A3A3A319
:1050E000A3E0F9122E99E9C3940A500CAC087A0295
:1050F0007B00122EB7750900E508600CEEFAEFFB95
:10510000122F058003750914A909024DCC74F212FF
:1051100013BAECFEEDFF750815740E121396E0F548
:105120000AA3E0F50B74FF6A700374FF6B702175BE
:105130000900AC0AAD0BEEFAEFFBA909122EBDE98E
:1051400060037508000509E509C3940A503E80E232
:1051500012272B8A828B83E5824583602C7C007D1D
:1051600000E5822405FAE43583FBA3A3A3A3E0F9B9
:10517000122E99E9C3940A5013AC0AAD0BEEFAEF64
:10518000FB122EBD7508008003750814A90802568D
:105190004FC082C083900807EAF0A3EBF09007EDC0
:1051A000E0FC7D007A267B0012225D9007EDE0F99D
:1051B0001224C7025C6674F01213BA74EC12134A1C
:1051C000EAFEEBFFEE240CF50CE43FF50DEE2405B2
:1051D000F50EE43FF50FEE2409F50AE43FF50BEE7A
:1051E0002403F508E43FF5098E828F83A3A3E0240E
:1051F000FA700302547124FD700302538F1470037C
:1052000002528C14601024FD700302536614700364
:105210000253C60254C8125F676049E0F583888272
:105220001254D2880E890FE8450F6038850C8285AC
:105230000D83E0F50C780C1215D1EE240BF582E409
:105240003FF583E0F9850A82850B8312587B0A0AB1
:105250000AAB09850E82850F831213B874011213ED
:10526000600254C8850A82850B831215E4900803F6
:105270001212201222F97402121360E97003025410
:10528000C87901850A82850B8302543C8E828F8304
:10529000A385820A85830BE06003025349850E8251
:1052A000850F83E0A2E040030253499008A1125FFA
:1052B0006A60030253497C0E7D007900AA18AB197D
:1052C000122D61850C82850D83125C31EA4B6010D2
:1052D000750C06750D00780C1215CDEA2410801B94
:1052E000125C2B12272BEA4B70030254C8750C0674
:1052F000750D00780C1215CDEA2405FCE43BFD7415
:10530000021213A8122D497402121360850E8285B1
:105310000F83E0A2E25004D2F08002C2F0A2F0E4D7
:1053200033F8740C121396E048F0EEFCEFFDAA1867
:10533000AB19122ECFE970117A027B009007EDE0D5
:10534000F9122D9D79000254CA125F67700302544E
:10535000C81254D870030254C8850A82850B83E0B2
:10536000FC7901025465125F6770030254C812543D
:10537000CF890BE8450B70030254C88E828F83A33C
:10538000E0FC7902125C2B8882850B8302546C7CD2
:10539000007D00EE2404FAE43FFB85088285098342
:1053A000E0F9122E99E9F8C3940A40030254C8EEBA
:1053B000240AFCE43FFD7A0475F006E8A42425F9EC
:1053C00012307F0254C8125C2B900802E0600790F4
:1053D0000D53E0F98069900D50E070047905805F0D
:1053E00012272B8A0C8B0DA80CA90DE82404F50CB0
:1053F000E439F50D8E828F83A3A3A3A3A3A3A3E017
:10540000A2E05041E84970030254C8850C82850D22
:1054100083E0FE6030850A82850B83E0541070259E
:10542000740E1213B0E82405FAE439FBEEF9122EDB
:1054300099E970117903850882850983125C31121C
:1054400022F30254C8AC0EAD0F850C82850D83E0AB
:10545000F9125C2B122F11125F67606C1254D86026
:10546000677C007900125C2B8E828F831213B880C8
:10547000571223BFE97051900896E064017015122D
:105480002EED900896E4F07C0AFDF97A977B0812DD
:105490002D61802C750A00850A0874972508FEE4A2
:1054A0003408FF8E828F83E06401700BA90A122EEC
:1054B000F38E828F83E4F0050AE50AC3940A40D78D
:1054C000795012308B122EE17901741402507C1243
:1054D00054E7E0F8A3E0F9221254E7E0F8A3E0F97A
:1054E000E8FEE9FFEE4F22E0F5838882A3A3227451
:1054F000F41213BA74F212134AEAFE8C0B75F0061A
:10550000E9A42420F508AC18AD197A0EF9123085FB
:10551000E9704B7C0679FFAA18AB19122DC1E9700E
:105520003D740C1213961254D2E8F509E50B600590
:10553000EE42098004EEF45209850982AA82E86AE3
:105540007001E96015740C121396EAF0A3E4F0AC54
:1055500018AD197A0EA90812307F790180027900FE
:10556000024DC774F21213BA74E612134A890A8AFA
:10557000088B09ECFEEDFF740C1213B07A0E75F077
:1055800006E9A42420F9123085E960030256487C1C
:105590000679FF740C1213A8122DC1E9600302569C
:1055A000487470250AF50BAC18AD197A0CF9123055
:1055B00085E96003025644AA18AB19122EC9E50802
:1055C0004509701D7C0C7900AA18AB19122DC1E990
:1055D00070727C0C7D007900AA18AB19122D6180C5
:1055E00051AC18AD19AA08AB09122EC38A0C8B0D49
:1055F000A80CA90DE8497022EE4F604CAC18AD190B
:105600007A007B00122EC3EAF8EBF9EA4B60398886
:10561000828983E508F0A3E509F01256C3FAEE6A21
:105620007001EF601FEEF04F700888828983E4F00C
:10563000A3F0AA18AB19122EC9AC18AD197A0CA98F
:105640000B12307F790180027900741A1213607F87
:105650000602148C74F71213BA7F00EF75F003A4DE
:10566000F8A9F0EC28F8ED125687E06A7003A3E081
:105670006B7006E8FAE9FB800B0FEFC3940440DB84
:105680007A007B000259B839F9888289832274F73D
:105690001213BA7E00EE75F003A4F8A9F0EA28F818
:1056A000EB125687E0F4FCA3E0F4FD88828983ECDA
:1056B000F0A3EDF01256C3F4F00EEEC3940440D5FF
:1056C0000259B8E82402F582E439F583E02274F443
:1056D0001213BA74F412134AEAFEEBFF8C088D0918
:1056E0009008A1125F6A704FEE4F7003025854EC9D
:1056F00045097003025854122EDBE9900D56F0C391
:10570000940A4033750B007C0679FFE50B75F00EAB
:10571000A4FAABF074092AFA74083BFB122DC1E914
:1057200060030257B4050BE50BC3940A40D9750A10
:105730000AE50A900D56F0900D56E0C3940A400316
:1057400002585475F006E0A4FB9008A1125F6A703D
:1057500069EEFCEFFD7A0E74202BF912307F7C0C81
:105760007D0079FFAA18AB19122D61AC18AD197A1A
:105770000C900D56E02470F912307F750A0E750BEF
:1057800000780A1215CDEEFCEFFD900D56E075F095
:105790000EA4F8A9F0740928FA740839FB122D49EF
:1057A00074021213609008A1E508F0A3E509F079EE
:1057B00000025856850B0A025731E0C824061258D9
:1057C0006F60197A1B74212BF912307F12585B24F9
:1057D00006F582E438F583E4F0A380D212585B2406
:1057E0000A12586F60107A1B74222BF912307F1244
:1057F000585B240A80DB12585B240C12586F60102F
:105800007A1074232BF912307F12585B240C80C15C
:1058100012586412586F60307A1074242BF91230C9
:105820007F125864F582E438F583E02410FCA3E08D
:105830003400FD7A0475F006900D56E0A42425F995
:1058400012307F1258648089900895E06003122F0F
:1058500017122F0B7901740C024DC99008A1E0F8C2
:10586000A3E0C8229008A1E0F8A3E0C8240822F52C
:1058700082E438F58312587BEC4D22E0FCA3E0FD76
:105880002274F41213BA74F212134AEAFEEBFFE91F
:10589000C3940A5004EE4F700479028034AC18AD02
:1058A000197A0E75F006E9A42420F9123085E9F57D
:1058B00008701C750A06750B00780A1215CD740263
:1058C0001213B0EEFAEFFB122D497402121360A905
:1058D00008024DC774F41213BAEAFEEBFF75080014
:1058E000750A06750B00780A1215CDEEFCEFFDE582
:1058F0000875F00EA4F8A9F0740928FA740839FBA9
:10590000122D5B7402121360E96004A908800B0574
:1059100008E508C3940A40C8790A024DCC74F7120E
:1059200013BA750800E50875F00EA4F8A9F074091B
:1059300028FE740839FFEEFCEFFD7A0E75F006E5DF
:1059400008A42420F9123085E960297C067D0079BD
:10595000FFEEFAEFFB122D617C067D0079FFEE2C45
:10596000FAE43FFB122D61EE240CF582E43FF5834F
:10597000E4F0A3F00508E508C3940A40A890089550
:10598000E06003122F17122F0B802D74F71213BA39
:105990007E007F007C0679FFEF75F00EA4FAABF075
:1059A00074092AFA74083BFB122DC1E970010E0F2D
:1059B000EFC3940A40DEEEF97F0102148C74F712F3
:1059C00013BA7E00EEF9122EF30EEEC3940A5003C2
:1059D000E960F180E374F31213BA74CB12134AE94D
:1059E000FE900D56E06E701B7A017B009007EDE093
:1059F000F9122DA37A027B009007EDE0F9122DA396
:105A0000122F2375F006EEA4FF74202FF5087427DB
:105A10001213B07A0EA908123085E96003025ADB2E
:105A20007C0679FF74271213A8122DC1E9600302C6
:105A30005ADB7C0E7D0079FF74271213A8122D61AA
:105A40007C1B7D0079FF740C1213A8122D617C0C55
:105A50007D0079FFAA18AB19122D6174271213B0BB
:105A60007A0EA90812307FE9F508740C1213B07A87
:105A70001B74212FF912307FE9F509740C1213B051
:105A80007A1B74222FF912307FE9F50A740C121375
:105A9000B07A1074232FF912307FE9F50B740C12D1
:105AA00013B07A1074242FF912307FE9F50C740CBE
:105AB0001213B07A0474252FF912307FE9FFAC1865
:105AC000AD197A0C74702EF912307FE9F8E50945AA
:105AD0000A450B450C4F4842088003750800A90889
:105AE00074351213607F0502148C74F71213BAE92F
:105AF0009007EDF0122EE10259B874F41213BAEACD
:105B0000FEEBFF54807003025B929007EDE0F91208
:105B10002D858A088B09EA4509607078018A828B95
:105B200083E02450603D14600624E1604F8052A35E
:105B3000A3A3A3E0704E8A828B83A3A3A3A3A3A3F2
:105B4000A31215E48A828B83A3A3A3A3A312587B79
:105B50008A828B83A3A3125C31122EA574021213C6
:105B6000608021A3A3A3A3E0641E701879008A8239
:105B70008B83A3A3125C31122E9F8008122EB1E9F1
:105B8000F8E86007AA08AB09122D73EEFAEF6480FB
:105B90008065EE540260237C007D007A007B001259
:105BA0002ECFE960117A017B009007EDE0F9122D0C
:105BB0009DEE6402803F7A028046EEA2E0503F12E2
:105BC0005C05125C31122F1DE9602F125F67601FA8
:105BD0001254CF88088909E8450960137C007901CF
:105BE000125C05125C318508828509831213B81294
:105BF0002F23EE6401FAEFFB80087A0180027A001D
:105C00007B00024DCC9008A1E0F8A31254E7A32238
:105C10007F0202148CC082C0839007EDE0F98A8273
:105C20008B83A3125C31122551803B850882850944
:105C300083E0FAA3E0FB22C082C08374FF12134A00
:105C4000122EE7E9C39402851882851983400474F3
:105C5000028002740AF0AC18AD197A01790512239A
:105C6000D77401121360D083D082020C2974F2120F
:105C700013BA74E812134AEAFEEBFF890A8C088D06
:105C8000097C187D007900AA18AB19122D618518BE
:105C900082851983EEF0A3EFF09007EFE0C0E07487
:105CA00002121396D0E0F09007F0E0C0E074031207
:105CB0001396D0E0F0900D55E0C0E07417121396E3
:105CC000D0E0F07415121396E054FEF8A3E0F990BA
:105CD0000D54E0A2E0E433FAE84AF8741512139682
